:020000040800F2
:1000000010040020450100084D0100084F010008C0
:1000100051010008530100085501000800000000CC
:100020000000000000000000000000005701000870
:1000300059010008000000005B0100085D01000894
:100040005F0100085F0100085F010008E10300088C
:100050005F0100085F0100085F0100085F01000800
:100060005F0100085F0100085F0100085F010008F0
:100070005F0100085F0100085F0100085F010008E0
:100080005F0100085F0100085F0100085F010008D0
:100090005F0100085F0100085F0100085F010008C0
:1000A0005F0100085F0100085F0100085F010008B0
:1000B0005F0100085F0100085F0100085F010008A0
:1000C0005F0100085F0100085F0100085F01000890
:1000D0005F010008DD0500085F0100085F010008FE
:1000E0005F0100085F0100085F0100085F01000870
:1000F0005F0100085F0100085F0100085F01000860
:100100005F0100085F0100085F0100085F0100084F
:100110005F0100085F0100085F0100085F0100083F
:100120005F0100085F0100085F0100085F0100082F
:10013000DFF80CD000F0F2F8004800476109000831
:10014000100400200648804706480047FEE7FEE707
:10015000FEE7FEE7FEE7FEE7FEE7FEE7FEE7FEE777
:100160007D05000831010008F0B480EA0102D40FD7
:100170004200B2EB410F02D20246084611464A0045
:1001800042D0C30DDDB2C1F3C752AD1A202D35DA0E
:10019000C1F3160141F4000204B15242C5F1200638
:1001A00002FA06F12A411044B3EBD05F23D0C4B168
:1001B000012DA0EBC35009DCF0BC4FF0004202EA75
:1001C000C352DBB200F5000000F07AB8400000F145
:1001D000807000EBC350A0F1807040EAD1704900FC
:1001E00009E0490841EAC071A0EBC35000F50000E6
:1001F000400800EBC350F0BC00F059B86142012246
:1002000002EB4101001BF6E7F0BC704781F00041B2
:10021000AAE780F00040A7E780EA010210B502F0EB
:100220000043400022D04A001FD0010E01EB1261B2
:10023000C0F35600C2F3560240F4000042F400023C
:10024000A0FB022000047F39140400D0401C50EAB7
:10025000124001D44000491EC2B20C0604EBD0107B
:10026000401C4008802A02D003E0002010BD20F08E
:100270000100002900DA0020184310BD9623002257
:10028000114600F01DB820F00040C10DC0F316006B
:1002900040F400007F2901DA00207047962903DC32
:1002A000C1F19601C84070479639884070470029CF
:1002B000A8BF7047401C490008BF20F001007047EC
:1002C00010B4B0FA80FC00FA0CF050EA010404BF4C
:1002D00010BC704749B1CCF1200421FA04F411FAA2
:1002E0000CF118BF012121430843A3EB0C01CB1DE6
:1002F0004FEA00614FEA102042BF002010BC704757
:1003000000EBC35010440029A4BF10BC7047401C30
:10031000490008BF20F0010010BC7047064C074D93
:1003200006E0E06840F0010394E8070098471034C5
:10033000AC42F6D3FFF700FF080C0008280C0008B9
:100340002DE9F0410746884614461D46284600F030
:1003500033F8C5F1040007FA00F60F20284100EA3F
:100360000800064306F00F06E21704EBD2625211B2
:10037000920002F1E022D2F800212146E31704EBBB
:10038000D3635B11A4EB431C012303FA0CF31A4360
:100390002046E31704EBD3635B119B0003F1E023DA
:1003A000C3F800210348005D40EA061001490855E2
:1003B000BDE8F08100E400E00146072323EA0102E2
:1003C0001202054B18684FF6FF031840034B184301
:1003D0001043014B186070470CED00E00000FA0577
:1003E0007CB500252948007800F0010090B328482A
:1003F00000680A2829D100F0EFF904464FF4616043
:10040000B4FBF0F01821B0FBF1F201FB1200ADF8E3
:1004100000003C20B4FBF0F03C21B0FBF1F201FB0A
:100420001200ADF802003C20B4FBF0F100FB1140DB
:10043000ADF8040004E03DF8150000F0BBFA6D1CB7
:10044000032DF8DB00201249086011480068401CA9
:100450000F4908600D48007800F0020070B1642078
:1004600000F0A8FA40F6AC5000F086FA00F098FBD5
:100470000648006820F0020004490860034800684C
:1004800020F00100014908607CBD00000428004004
:100490000000002010B500F001F810BD0CB50020E0
:1004A000019000903348006840F480303149086082
:1004B00000BF3048006800F4003000900198401CF4
:1004C0000190009818B90198B0F5A06FF1D12948B2
:1004D000006800F4003010B10120009001E000201D
:1004E00000900098012843D12348006840F0100094
:1004F000214908600846006820F0030008600846AB
:10050000006840F0020008601A48406819494860D5
:100510000846406848600846406840F4806048608B
:100520000846406820F47C1048600846406840F463
:10053000E81048600846006840F08070086000BF1E
:100540000C48006800F000700028F9D009484068A5
:1005500020F00300074948600846406840F0020068
:10056000486000BF0348406800F00C000828F9D13B
:100570000CBD0000001002400020024010B51348DE
:10058000006840F0010011490860084640681049C1
:1005900008400E494860084600680E4908400B496B
:1005A00008600846006820F480200860084640681B
:1005B00020F4FE0048604FF41F008860FFF76AFFD8
:1005C0004FF000600449086010BD000000100240B8
:1005D0000000FFF8FFFFF6FE08ED00E010B5184838
:1005E000008800F0200050B31548001D0088C0B2FC
:1005F0001449154A128821F81200134A128831F85A
:10060000120000F0D7F910480088401C0E490880FD
:1006100008460088032812D1002008800948008875
:100620004FF46161484307494988C1EB011100EB70
:100630008100044989884418204600F00DFA10BD55
:1006400000380140040000200A00002002E008C831
:10065000121F08C1002AFAD170477047002001E03C
:1006600001C1121F002AFBD1704700BF0100A0F199
:100670000100FBD17047000010B500245148C0694B
:1006800040F080504F49C8610846C06940F00060A2
:10069000C8614D48006840F480704B490860494883
:1006A000006A40F48030474908620846006A20F436
:1006B000803008620846006A40F00100086203E0EA
:1006C000641C4248FFF7D1FF3E482030007800F01C
:1006D000020008B9FA2CF3D33A48006A40F480705B
:1006E000384908620846006A40F40040086200BFCA
:1006F0003748007800F020000028F9D000BF3448C7
:10070000007800F008000028F9D03148001F006888
:1007100040F001002E49091F08600846006840F0BB
:100720000200086000BF2A48007800F0200000287E
:10073000F9D02748006840F01000254908600020E3
:10074000091D086047F6FF70091D086000BF2048BA
:10075000007800F020000028F9D000201C49143156
:100760000860081D006840F00100091D0860184875
:10077000006820F010001649086000BF1448007897
:1007800000F020000028F9D000201249086011492B
:100790000C3908600F49091D08600E4908390860C6
:1007A0000C49083108600B49091F08604AF2A00093
:1007B0000849103908600223032200210846FFF788
:1007C000BFFD10BD0010024000700040A086010077
:1007D00004280040146C0040002103480168001FF9
:1007E000008841EA004070471C2800400C4880699E
:1007F00040F008000A4988610A48006820F4700047
:10080000084908600846006840F440100860054840
:100810000C30006820F0200002490C31086070475D
:1008200000100240000C01402DE9F047334D2846EE
:10083000FFF729FD84B22046FFF720FD81462946B7
:10084000FFF7E7FC80464FF08341FFF7E5FC0746E2
:10085000FFF719FD86B24FF6FF7000EA0414A019E5
:1008600084B22748806940F0040025498861084621
:10087000806940F4804088612248006820F0F000E0
:10088000204908600846006840F0D00008601C4815
:10089000C06840F480401A49C8600846C06820F427
:1008A0008040C86040F2712017490880081D008808
:1008B00040F40050091D08800846008820F480504C
:1008C00008800846008840F020000880084600881C
:1008D00040F0080008800846008840F004000880C6
:1008E0000020091D0880091D0880022325220321FC
:1008F0000846FFF725FDBDE8F087000000401C42D8
:100900000010024004080140083801401148806985
:1009100040F010000F4988610F48006820F00F0078
:100920000D4908600846006840F0030008604FF475
:10093000803008610CE04FF48030074908610748B7
:10094000FFF793FE0120044908610448FFF78DFE7C
:10095000F1E700000010024000100140FFFF0F000F
:1009600010B5FFF761FFFFF787FEFFF73FFFFFF7C7
:10097000CDFF002010BD000010B5044614E00C4867
:10098000006840F020000A49086042F21070FFF74A
:100990006CFE0748006820F020000549086041F21D
:1009A0008830FFF762FE641E002CE8DA10BD0000FC
:1009B0000C0C014000BF0949098801F040010029E1
:1009C000F9D0C0F30801054A121D118000BF034988
:1009D000098801F040010029F9D070470038014032
:1009E0001A49C96941F08051184AD1611146C96953
:1009F00041F00061D1611649096841F48071144ADF
:100A000011601449096841F01001124A116000BFD9
:100A10001049097801F020010029F9D04FF6FF7143
:100A200001EA10410B4A1C32116081B2121D1160A3
:100A30000849096821F01001064A116000BF054904
:100A4000097801F020010029F9D070470010024018
:100A500000700040042800402DE9F0410446FFF7F3
:100A6000BBFE07464C48B7FBF0F100FB1176B442E1
:100A700002D3A01BC41903E04748801B2044C419BB
:100A80004648006845490C31098840EA014555B996
:100A90002046FFF7A5FF200C40490C310860A0B2AA
:100AA0003E49086075E0AC4212D22046FFF798FF3D
:100AB000280C3A4910310860A8B23849091D08606D
:100AC000200C36490C310860A0B23449086060E05F
:100AD000AC425ED93148001D0068304910310988A8
:100AE00040EA014040B9200C2C4910310860A0B206
:100AF0002A49091D08604CE02848001D0068274964
:100B00001031098840EA0140A04224D2234808302D
:100B1000006822491431098840EA014040B9200C9C
:100B20001E4914310860A0B21C490831086030E049
:100B30001A480830006819491431098840EA014010
:100B4000A04226D9200C154914310860A0B21349DF
:100B5000083108601DE01148001D00680F49103180
:100B6000098840EA0140A04213D90C4810300068BF
:100B70000A49143108600948001D00680749083116
:100B80000860200C054910310860A0B20349091D16
:100B90000860BDE8F081000080510100086C004051
:100BA00000B51848006817490C31098840EA01432C
:100BB00003B31846FFF714FF12480C3000681149C0
:100BC000083108600F4800680E49091F08600D4889
:100BD000103000680B490C3108600A48001D00689D
:100BE0000849086000200749103108600549091DBF
:100BF000086006E000200349083108600149091F28
:100C0000086000BD0C6C0040280C000800000020AB
:100C10000C0000004C060008340C00080C000020FA
:100C2000040400005C060008000000000000000052
:040C300000000000C0
:0400000508000131BD
:00000001FF
